:100000000C94DB000C948C020C94F8000C94F80017
:100010000C94F8000C94F8000C94F8000C94F80080
:100020000C94F8000C94F8000C94F8000C94F80070
:100030000C94F8000C94F8000C94F8000C94F80060
:100040000C94F8000C94F8000C94F8000C94F80050
:100050000C94F8000C94F8000C94F8000C94F80040
:100060000C94F8000C94F8000C94F8000C94F80030
:100070000C94F8000C94F8000C94F8000C94F80020
:100080000C94F8000C94F8000C94F8000C94F80010
:100090000C94F8000C94F8000C94F8000C94F80000
:1000A0000C94F8000C94F8000C94F8000C94F800F0
:1000B0000C94F8006E616E00696E660000407A1064
:1000C000F35A00A0724E18090010A5D4E80000E809
:1000D0007648170000E40B54020000CA9A3B000067
:1000E00000E1F505000080969800000040420F00F6
:1000F0000000A08601000000102700000000E803B7
:10010000000000006400000000000A000000000081
:100110000100000000002C76D888DC674F0823DF40
:10012000C1DFAE59E1B1B796E5E3E453C63AE65113
:10013000997696E8E6C28426EB898C9B62ED407C3A
:100140006FFCEFBC9C9F40F2BAA56FA5F490055AD6
:100150002AF75C936B6CF9676DC11BFCE0E40D47FB
:10016000FEF520E6B500D0ED902E0300943577051E
:100170000080841E080000204E0A000000C80C33D6
:100180003333330F986E12831141EF8D2114893B65
:10019000E65516CFFEE6DB18D1844B381BF77C1DE5
:1001A000901DA4BBE424203284725E228100C9F138
:1001B00024ECA1E53D2711241FBECFEFD8E0DEBF20
:1001C000CDBF12E0A0E0B1E0EEEFF7E102C0059094
:1001D0000D92AC38B107D9F722E0ACE8B2E001C02B
:1001E0001D92A93BB207E1F70E940A020C94FD0B95
:1001F0000C9400001092C50087E68093C40086E04E
:100200008093C20088E18093C100089584E48093C4
:100210007C0087E880937A000895CF92DF92EF9276
:10022000FF92CF9310928C0210928D0210928E0248
:1002300010928F02C5E0C15079F180917A008064FC
:1002400080937A0080917A0086FDFCCF60917800DF
:1002500070917900C0908C02D0908D02E0908E0257
:10026000F0908F0280E090E00E944905A70196017E
:100270000E94DD0460938C0270938D0280938E0245
:1002800090938F022FEF80E792E0215080409040C2
:10029000E1F700C00000CFCF60918C0270918D0219
:1002A00080918E0290918F0220E030E040E85EE382
:1002B0000E94D70560938C0270938D0280938E020A
:1002C00090938F02CF91FF90EF90DF90CF900895A1
:1002D000CF93DF931F92CDB7DEB78AE091E00E9403
:1002E0003F0B88E391E00E943F0B41E050E0BE01EC
:1002F0006F5F7F4F80E00E94C20289811F928F93BF
:1003000084E691E09F938F930E94290B41E050E097
:10031000BE016F5F7F4F81E00E94C20289811F9200
:100320008F9383E791E09F938F930E94290B41E085
:1003300050E0BE016F5F7F4F82E00E94C202898160
:100340001F928F9381E891E09F938F930E94290BD6
:1003500041E050E0BE016F5F7F4F84E00E94C20227
:1003600089811F928F9383E991E09F938F930E94DD
:10037000290B41E050E0BE016F5F7F4F85E00E9496
:10038000C20289811F928F9386EA91E09F938F9397
:100390000E94290B41E050E0BE016F5F7F4F86E075
:1003A0000E94C20289811F928F9384EB91E09F93F8
:1003B0008F930E94290B41E050E0BE016F5F7F4F99
:1003C00087E00E94C20289811F928F9385EC91E0A1
:1003D0009F938F930E94290B41E050E0BE016F5F15
:1003E0007F4F8DE10E94C20289811F928F9384ED1D
:1003F00091E09F938F930E94290B0FB6F894DEBF74
:100400000FBECDBF84EE91E00E943F0B0F90DF91B5
:10041000CF910895CF93DF93CDB7DEB7A0970FB6F6
:10042000F894DEBF0FBECDBF0E94FA000E94C40246
:100430000E9468010E94060181E192E00E943F0B48
:100440000E94DC0381E292E00E943F0B80E3E82EF1
:1004500082E0F82E90E2B92E8E010F5F1F4F29E443
:10046000C22E22E0D22E0E940D0180918C0290912A
:100470008D02A0918E02B0918F02BF93AF939F9394
:100480008F93FF92EF921F92BF921F930F930E9440
:100490006F0BC8010E94E7032FEF31EE84E021507B
:1004A00030408040E1F700C00000809191020FB61B
:1004B000F894DEBF0FBECDBF8823A9F285E392E09A
:1004C0000E943F0B109291020E948F049F938F9382
:1004D000DF92CF920E94290B3FEF89E698E13150DD
:1004E00080409040E1F700C00000C8010E94E7038F
:1004F00091E00F900F900F900F90811101C090E04C
:100500009093900280919002882309F4ACCF8FE5FC
:1005100092E00E943F0BA7CF1F920F920FB60F924F
:1005200011248F9381E0809391028F910F900FBEE1
:100530000F901F901895DF92EF92FF920F931F93E9
:10054000CF93DF93D62EE72E8A012A980E94D604F5
:10055000F82ECD2DDE2D0C0F1D1FC017D10729F051
:1005600088810E94D6048993F8CF2A9A8F2DDF9133
:10057000CF911F910F91FF90EF90DF9008958062CF
:100580000C949B020C949B020F931F93CF93DF93C9
:100590001F92CDB7DEB7F894E9E6F0E08081826083
:1005A0008083E89A7894219A229A2A9A29980E941C
:1005B000C7042FEF81EE94E0215080409040E1F796
:1005C00000C000000FE30093B20241E050E062EB94
:1005D00072E080E00E94BF021092B20241E050E05F
:1005E00062EB72E081E00E94BF0280EF8093B20272
:1005F00041E050E062EB72E084E00E94BF021092A2
:10060000B20241E050E062EB72E082E00E94BF0281
:1006100084E78093B20241E050E062EB72E085E053
:100620000E94BF028EE08093B20241E050E062EB94
:1006300072E086E00E94BF0210E71093B20241E030
:1006400050E062EB72E087E00E94BF020093B202CA
:1006500041E050E062EB72E08CE10E94BF0284E076
:100660008093B20241E050E062EB72E08DE10E94C3
:10067000BF02198340E050E060E070E082EE0E942B
:10068000BF0240E050E060E070E081EE0E94BF02F7
:1006900045E050E065E071E08AE00E94BF0245E07D
:1006A00050E060E071E080E10E94BF0241E050E074
:1006B000BE016F5F7F4F82E00E94BF02898181602F
:1006C000898341E050E0BE016F5F7F4F82E00E946E
:1006D000BF020F90DF91CF911F910F9108951F934B
:1006E000CF93DF931F92CDB7DEB7182F41E050E0D4
:1006F000BE016F5F7F4F80E00E94C202133099F10C
:1007000040F41130F1F0123009F051C089818D7F31
:1007100040C0153009F447C0D0F1163009F047C089
:1007200089818E7F8093B20241E050E062EB72E0FB
:1007300080E00E94BF02299A87E592E00197F1F7D5
:1007400034C0898181FD33C082608093B20241E070
:1007500050E062EB72E080E00E94BF028FE39FE115
:100760000197F1F722C0898181608093B20241E054
:1007700050E062EB72E080E00E94BF0280E780936D
:10078000B20241E050E062EB72E087E009C089818B
:100790008E7F8093B20241E050E062EB72E080E035
:1007A0000E94BF0204C0299802C000C000000F9040
:1007B000DF91CF911F91089583E00E946F03299AE2
:1007C00087E592E00197F1F700C000000895BF921D
:1007D000CF92DF92EF92FF920F931F93CF93DF930D
:1007E000CDB7DEB7A0970FB6F894DEBF0FBECDBF72
:1007F0007C0180E2B82ECE0101966C01FC018B2DAC
:1008000011928A95E9F7B701C6010E94DB0AF70148
:1008100001900020E9F731978F010E191F0984E03C
:100820000E946F0340E050E060E070E082EE0E94C2
:10083000BF0240E050E060E070E081EE0E94BF0245
:10084000B092B20241E050E062EB72E087E00E94B9
:10085000BF0241E050E062EB72E080E00E94C20221
:100860008091B20280648093B20241E050E062EB7A
:1008700072E080E00E94BF022A9880EB0E94D104BF
:10088000002339F0F70181917F010E94D1040150CA
:10089000F7CF80E00E94D1042A9A299AF0E5FA95D0
:1008A000F1F7299841E050E062EB72E087E00E94A6
:1008B000C2028091B20285FFF5CFDF92CF9283E72B
:1008C00092E09F938F930E94290B41E050E062EBEE
:1008D00072E080E00E94C2028091B2028F7B80931E
:1008E000B20241E050E062EB72E080E00E94BF02A1
:1008F0000E94DC030F900F900F900F9081E0A09664
:100900000FB6F894DEBF0FBECDBFDF91CF911F9120
:100910000F91FF90EF90DF90CF90BF90089580E20D
:10092000E2E9F2E0DF011D928A95E9F741E050E04B
:1009300062EB72E080E60E94C2024091B202442360
:1009400041F050E04F5F5F4F62E972E081E60E9444
:100950009B0280919202882369F080E48093B20226
:1009600041E050E062EB72E087E00E94BF0282E962
:1009700092E0089580E48093B20241E050E062EB9F
:1009800072E087E00E94BF0285E892E00895249813
:1009900084B1886284B980E58CBD8DB581608DBDE0
:1009A00008958EBD0DB407FEFDCF08958EBD0DB424
:1009B00007FEFDCF8EB508955058BB27AA270E9489
:1009C000F4040C949D050E948F0538F00E94960552
:1009D00020F039F49F3F19F426F40C948C050EF4A2
:1009E000E095E7FB0C948605E92F0E94AE0558F3CD
:1009F000BA17620773078407950720F079F4A6F504
:100A00000C94D0050EF4E0950B2EBA2FA02D0B01FF
:100A1000B90190010C01CA01A0011124FF27591B43
:100A200099F0593F50F4503E68F11A16F040A22F49
:100A3000232F342F4427585FF3CF469537952795BA
:100A4000A795F0405395C9F77EF41F16BA0B620BB9
:100A5000730B840BBAF09150A1F0FF0FBB1F661F00
:100A6000771F881FC2F70EC0BA0F621F731F841F43
:100A700048F4879577956795B795F7959E3F08F069
:100A8000B0CF9395880F08F09927EE0F979587952B
:100A90000895E89409C097FB3EF490958095709571
:100AA00061957F4F8F4F9F4F9923A9F0F92F96E9BA
:100AB000BB279395F695879577956795B795F1112F
:100AC000F8CFFAF4BB0F11F460FF1BC06F5F7F4FCC
:100AD0008F4F9F4F16C0882311F096E911C07723DE
:100AE00021F09EE8872F762F05C0662371F096E8E7
:100AF000862F70E060E02AF09A95660F771F881FB6
:100B0000DAF7880F9695879597F9089597F99F6773
:100B100080E870E060E008959FEF80EC0895002485
:100B20000A941616170618060906089500240A9452
:100B300012161306140605060895092E0394000CD8
:100B400011F4882352F0BB0F40F4BF2B11F460FF67
:100B500004C06F5F7F4F8F4F9F4F089557FD905890
:100B6000440F551F59F05F3F71F04795880F97FB71
:100B7000991F61F09F3F79F087950895121613062B
:100B80001406551FF2CF4695F1DF08C0161617065A
:100B90001806991FF1CF869571056105089408958F
:100BA000E894BB2766277727CB0197F908950E9421
:100BB000EA050C949D050E948F0538F00E94960569
:100BC00020F0952311F00C9486050C948C051124CB
:100BD0000C94D1050E94AE0570F3959FC1F3950F5B
:100BE00050E0551F629FF001729FBB27F00DB11DB1
:100BF000639FAA27F00DB11DAA1F649F6627B00D41
:100C0000A11D661F829F2227B00DA11D621F739F29
:100C1000B00DA11D621F839FA00D611D221F749F37
:100C20003327A00D611D231F849F600D211D822F7E
:100C3000762F6A2F11249F5750409AF0F1F08823A5
:100C40004AF0EE0FFF1FBB1F661F771F881F9150D2
:100C50005040A9F79E3F510580F00C9486050C94F6
:100C6000D1055F3FE4F3983ED4F386957795679579
:100C7000B795F795E7959F5FC1F7FE2B880F911DFC
:100C80009695879597F90895A0E1B0E0EAE4F6E03B
:100C90000C94C1097C011B016A01FC0117821682B8
:100CA000838181FF44C39E012F5F3F4F3901F701CC
:100CB0009381F10193FD859193FF81911F01882319
:100CC00009F431C3853239F493FD859193FF819105
:100CD0001F01853239F4B70190E00E94ED0A5601F8
:100CE0006501E5CF10E0512C912CFFE1F915D8F00A
:100CF0008B3279F038F4803279F08332A1F4F92D17
:100D0000F0612EC08D3261F0803369F4292D2160AD
:100D10002DC0392D3260932E892D8460982E2AC0E3
:100D2000E92DE86015C097FC2DC020ED280F2A3072
:100D300088F496FE06C03AE0139F200D1124122F6E
:100D400019C08AE0589E200D1124522EE92DE06230
:100D50009E2E10C08E3231F496FCE5C2F92DF0645F
:100D60009F2E08C08C3621F4292D2068922E02C0B7
:100D7000883641F4F10193FD859193FF81911F0124
:100D80008111B3CF9BEB980F933020F4992D906194
:100D9000805E07C09BE9980F933008F066C1992DDB
:100DA0009F7E96FF16E09F73992E853619F4906406
:100DB000992E08C0863621F4392F3068932E02C050
:100DC0001111115097FE07C01C3350F44424439472
:100DD000410E27E00BC0183038F027E017E005C0BF
:100DE00027E09CE3492E02C0212F412C560184E0CC
:100DF000A80EB11CF6016081718182819381042D5E
:100E0000A3010E94F8096C01F981FC87F0FF02C080
:100E1000F3FF06C091FC06C092FE06C000E205C0CA
:100E20000DE203C00BE201C000E08C858C7019F06C
:100E300001115AC29BC297FE10C04C0CFC85F4FFF6
:100E400004C08A81813309F44A94141474F528E0AB
:100E5000241578F588E0482E2CC096FC2AC0812FF6
:100E600090E08C159D059CF03CEFC3163FEFD30638
:100E700074F0892D8068982E0AC0E2E0F0E0EC0F53
:100E8000FD1FE10FF11D8081803319F41150111104
:100E9000F4CF97FE0EC044244394410E812F90E07E
:100EA000C816D9062CF41C1904C04424439401C06C
:100EB00010E097FE06C01C141D0434F4C601019610
:100EC00005C085E090E002C081E090E0011101964C
:100ED000112331F0212F30E02F5F3F4F820F931FFE
:100EE000252D30E08217930714F4581A01C0512CB5
:100EF000892D897049F4552039F0B70180E290E0DE
:100F00000E94ED0A5A94F7CF002329F0B701802FF1
:100F100090E00E94ED0A93FC09C0552039F0B7011A
:100F200080E390E00E94ED0A5A94F7CF97FE4CC000
:100F30004601D7FE02C0812C912CC601881999095F
:100F4000F301E80FF91FFE87ED8796012419310997
:100F5000388B2F87012F10E01195019511093FEF74
:100F60008316930629F4B7018EE290E00E94ED0A01
:100F7000C814D9044CF08F8598898815990524F4F4
:100F8000ED85FE85818101C080E3F1E08F1A910833
:100F90002D853E852F5F3F4F3E872D87801691061A
:100FA0002CF0B70190E00E94ED0AD9CFC814D90403
:100FB00041F49A81963320F4953319F43C8534FF3B
:100FC00081E3B70190E04EC08A81813319F09C859E
:100FD0009F7E9C87B70190E00E94ED0A111105C029
:100FE00094FC18C085E690E017C0B7018EE290E04F
:100FF0000E94ED0A1E5F82E001E0080FF301E80F96
:10100000F11D8081B70190E00E94ED0A802F01134D
:10101000F3CFE6CF85E490E0B7010E94ED0AD7FC5C
:1010200006C0C114D10441F4EC85E4FF05C0D1949D
:10103000C194D1088DE201C08BE2B70190E00E941B
:10104000ED0A80E32AE0C216D1042CF08F5FFAE0AB
:10105000CF1AD108F7CFB70190E00E94ED0AB7018F
:10106000C601C0960E94ED0A54C1833631F0833721
:1010700079F0833509F056C020C0560132E0A30E46
:10108000B11CF6018081898301E010E0630112C088
:101090005601F2E0AF0EB11CF601C080D18096FE81
:1010A00003C0612F70E002C06FEF7FEFC6010E94A6
:1010B000E20A8C01F92DFF7714C0560122E0A20E3E
:1010C000B11CF601C080D18096FE03C0612F70E094
:1010D00002C06FEF7FEFC6010E94D00A8C01F92D8C
:1010E000F0689F2EF3FD1AC0852D90E008171907B0
:1010F000A8F4B70180E290E00E94ED0A5A94F4CF80
:10110000F60197FC859197FE81916F01B70190E000
:101110000E94ED0A51105A94015011090115110550
:1011200079F7F7C0843611F0893661F5560197FEDC
:1011300009C024E0A20EB11CF60160817181828198
:1011400093810AC0F2E0AF0EB11CF601608171819B
:10115000072E000C880B990BF92DFF769F2E97FF19
:1011600009C090958095709561957F4F8F4F9F4FE7
:10117000F0689F2E2AE030E0A3010E949F0BC82E4A
:10118000C6183FC0092D853721F40F7E2AE030E0D4
:101190001DC0097F8F3691F018F4883559F0C3C00F
:1011A000803719F0883711F0BEC0006104FF09C014
:1011B000046007C094FE08C0066006C028E030E066
:1011C00005C020E130E002C020E132E0560107FF17
:1011D00009C084E0A80EB11CF60160817181828192
:1011E000938108C0F2E0AF0EB11CF60160817181FD
:1011F00080E090E0A3010E949F0BC82EC6180F77D5
:10120000902E96FE0BC0092D0E7FC11650F494FE51
:101210000AC092FC08C0092D0E7E05C0DC2C092DE9
:1012200003C0DC2C01C0D12E04FF0DC0FE01EC0D6B
:10123000F11D8081803311F4097E09C002FF06C0D0
:10124000D394D39404C0802F867809F0D39403FDFF
:1012500011C000FF06C01C2DD51480F4150D1D19FA
:101260000DC0D51458F4B70180E290E00E94ED0A59
:10127000D394F7CFD51410F45D1801C0512C04FF9E
:1012800010C0B70180E390E00E94ED0A02FF17C092
:1012900001FD03C088E790E002C088E590E0B70157
:1012A0000CC0802F867859F001FF02C08BE201C08C
:1012B00080E207FD8DE2B70190E00E94ED0AC116C1
:1012C00038F4B70180E390E00E94ED0A1150F7CFA7
:1012D000CA94F301EC0DF11D8081B70190E00E94EA
:1012E000ED0AC110F5CF15C0F4E0F51560F584E006
:1012F000581A93FE1FC0011127C02C8523FF2AC056
:1013000004EB10E0392D3071932EF8018491811196
:1013100024C0552009F4E4CCB70180E290E00E949B
:10132000ED0A5A94F6CFF7018681978126C08FEF98
:101330009FEF23C0B70180E290E00E94ED0A5A942B
:101340005110F8CFD8CF512CB701802F90E00E94D8
:10135000ED0AD3CF08EB10E0D5CF91108052B70142
:1013600090E00E94ED0A0F5F1F4FCFCF23E02515BD
:1013700010F483E0BDCF512CC0CF6096E2E10C9415
:10138000DD092F923F924F925F926F927F928F92E0
:101390009F92AF92BF92CF92DF92EF92FF920F9304
:1013A0001F93CF93DF93CDB7DEB7CA1BDB0B0FB60E
:1013B000F894DEBF0FBECDBF09942A8839884888CB
:1013C0005F846E847D848C849B84AA84B984C88461
:1013D000DF80EE80FD800C811B81AA81B981CE0F58
:1013E000D11D0FB6F894DEBF0FBECDBFED0108953D
:1013F000283008F027E03327DA01990F311D87FDE7
:10140000916000966105710539F432602E5F3D935D
:1014100030E32A95E1F708959F3F30F08038710559
:10142000610509F03C5F3C5F3D93913008F08068B6
:10143000911DDF93CF931F930F93FF92EF92192F7C
:10144000987F9695E92F96959695E90FFF27EA5E86
:10145000FE4F99273327EE24FF24A701E7010590CB
:101460000894079428F4360FE71EF81E491F511DF3
:10147000660F771F881F991F0694A1F705900794A0
:1014800028F4E70EF81E491F561FC11D770F881F4D
:10149000991F661F0694A1F70590079428F4F80E8B
:1014A000491F561FC71FD11D880F991F661F771F21
:1014B0000694A1F70590079420F4490F561FC71F03
:1014C000D81F990F661F771F881F0694A9F784916C
:1014D0001095177041F0D695C79557954795F79495
:1014E000E7941A95C1F7ECEBF0E06894159015912C
:1014F00035916591959105907FE27395E118F10A18
:10150000430B560BC90BD009C0F7E10CF11E431F6A
:10151000561FC91FD01D7EF4703311F48A95E6CF93
:10152000E894015030F0080F0AF40027021708F47D
:10153000202F2395022F7A3328F079E37D932A9583
:10154000E9F710C07D932A9589F6069497956795DB
:10155000379517951794E118F10A430B560BC90BF1
:10156000D00998F023957E9173957A3308F070E353
:101570007C932013B8F77E9170617D9330F0839552
:1015800071E37D9370E32A95E1F71124EF90FF90CA
:101590000F911F91CF91DF91992787FD9095089525
:1015A000FC010590615070400110D8F7809590952E
:1015B0008E0F9F1F0895FB01DC0101900D9200200A
:1015C000E1F70895FC016150704001900110D8F7D7
:1015D000809590958E0F9F1F08950F931F93CF9323
:1015E000DF93FB01238121FD03C08FEF9FEF2CC010
:1015F00022FF16C046815781248135814217530747
:1016000044F4A081B1819D012F5F3F4F318320833E
:101610008C93268137812F5F3F4F3783268314C0F9
:101620008B01EC01FB010084F185E02D0995892BEC
:10163000E1F6D80116968D919C9117970196179611
:101640009C938E931697CE01DF91CF911F910F91AE
:101650000895A0E0B0E0EFE2FBE00C94D109AE0108
:101660004B5F5F4FFA0161917191AF018091B502BB
:101670009091B6020E944406E2E00C94ED090F93AB
:101680001F93CF93DF93E091B502F091B6022381CF
:1016900021FF1BC08C01D0E0C0E0F80181918F01D7
:1016A0006091B5027091B602DB011896ED91FC9144
:1016B0001997882331F00995892B79F3DFEFCFEF64
:1016C000ECCF8AE00995892B19F08FEF9FEF02C0CC
:1016D0008D2F9C2FDF91CF911F910F910895AEE038
:1016E000B0E0E5E7FBE00C94CF090D891E898F89F6
:1016F000988D26E02C831A83098397FF02C080E02F
:1017000090E801979E838D83AE01455E5F4F698DA2
:101710007A8DCE0101960E9444064D815E8157FD6F
:101720000AC02F813885421753070CF49A01F8013B
:10173000E20FF31F10822E96E4E00C94EB09FA01FD
:10174000AA27283051F1203181F1E8946F936E7F00
:101750006E5F7F4F8F4F9F4FAF4FB1E03ED0B4E0F1
:101760003CD0670F781F891F9A1FA11D680F791F32
:101770008A1F911DA11D6A0F711D811D911DA11D43
:1017800020D009F468943F912AE0269F1124301953
:10179000305D3193DEF6CF010895462F4770405DEE
:1017A0004193B3E00FD0C9F7F6CF462F4F70405D9D
:1017B0004A3318F0495D31FD4052419302D0A9F7F8
:1017C000EACFB4E0A6959795879577956795BA95F2
:1017D000C9F700976105710508959B01AC010A2EB8
:1017E00006945795479537952795BA95C9F7620F8F
:0E17F000731F841F951FA01D0895F894FFCF4E
:1017FE00E7E7E7E7E7F7F7F7F7F753746172747502
:10180E0070207375636365737366756C0A0A206E58
:10181E00524632344C30312B20636F6E66696775D9
:10182E007265642061733A002D2D2D2D2D2D2D2DD9
:10183E002D2D2D2D2D2D2D2D2D2D2D2D2D2D2D2DCA
:10184E002D2D2D2D2D2D2D2D2D2D2D2D2D2D2D2DBA
:10185E002D2D2D00434F4E464947203078253032EE
:10186E00580A00454E5F4141203078253032580AE3
:10187E0000454E5F52584144445220307825303254
:10188E00580A0053455455505F52455452203078F3
:10189E00253032580A0052465F43482030782530B2
:1018AE0032580A0052465F53455455502030782521
:1018BE003032580A00535441545553203078253055
:1018CE0032580A004645415455524520307825304D
:1018DE0032580A002D2D2D2D2D2D2D2D2D2D2D2D4A
:1018EE002D2D2D2D2D2D2D2D2D2D2D2D2D2D2D2D1A
:1018FE002D2D2D2D2D2D2D2D2D2D2D2D2D2D2D0A2D
:10190E00007374617274206C697374656E696E67AE
:10191E0000446F6E65206C697374656E696E670046
:10192E0025660D0A00696E73696465206966206319
:10193E006F6E646974696F6E004D65737361676570
:10194E002052656365697665643A2025730A004DF9
:10195E00657373616765205472616E736D6974741B
:10196E006564004D6573736167652073656E743AC7
:0C197E002025730A006661696C65640036
:00000001FF
