S014000041737369676E6D656E7436412E7372656380
S11300000C94DB000C94F8000C94F8000C94F800A9
S11300100C94F8000C94F8000C94F8000C94F8007C
S11300200C94F8000C94F8000C94F8000C94F8006C
S11300300C94F8000C94F8000C94F8000C94F8005C
S11300400C94F8000C94F8000C94F8000C94F8004C
S11300500C94F8000C94F8000C94F8000C94F8003C
S11300600C94F8000C94F8000C94F8000C94F8002C
S11300700C94F8000C94F8000C94F8000C94F8001C
S11300800C94F8000C94F8000C94F8000C94F8000C
S11300900C94F8000C94F8000C94F8000C94F800FC
S11300A00C94F8000C94F8000C94F8000C94F800EC
S11300B00C94F8006E616E00696E660000407A1060
S11300C0F35A00A0724E18090010A5D4E80000E805
S11300D07648170000E40B54020000CA9A3B000063
S11300E000E1F505000080969800000040420F00F2
S11300F00000A08601000000102700000000E803B3
S1130100000000006400000000000A00000000007D
S11301100100000000002C76D888DC674F0823DF3C
S1130120C1DFAE59E1B1B796E5E3E453C63AE6510F
S1130130997696E8E6C28426EB898C9B62ED407C36
S11301406FFCEFBC9C9F40F2BAA56FA5F490055AD2
S11301502AF75C936B6CF9676DC11BFCE0E40D47F7
S1130160FEF520E6B500D0ED902E0300943577051A
S11301700080841E080000204E0A000000C80C33D2
S11301803333330F986E12831141EF8D2114893B61
S1130190E65516CFFEE6DB18D1844B381BF77C1DE1
S11301A0901DA4BBE424203284725E228100C9F134
S11301B024ECA1E53D2711241FBECFEFD8E0DEBF1C
S11301C0CDBF11E0A0E0B1E0EAEAF8E102C0059099
S11301D00D92A035B107D9F721E0A0E5B1E001C047
S11301E01D92AC36B207E1F70E947A020C94530CCC
S11301F00C9400001092B90088E48093B80008952C
S113020094EA9093BC00ECEBF0E090819923ECF736
S11302109091B900987F903199F48093BB0084E861
S11302208093BC00ECEBF0E080818823ECF78091B4
S1130230B900887F803431F0803231F083E0089552
S113024080E0089581E0089582E0089584E9809330
S1130250BC00ECEBF0E0808184FDFDCF0895BF92FB
S1130260CF92DF92EF92FF920F931F93CF93DF937E
S1130270B82ECCEBD0E00F2EF4EADF2EF02D09EBF4
S113028010E00F2EFBEBEF2EF12CF02D0F2EF4E8E7
S1130290CF2EF02DD88288818823ECF7F801808155
S11302A0887F8830B9F7F701B082C88288818823B3
S11302B0ECF7F8018081887F883119F00E942601CB
S11302C0E9CFDF91CF911F910F91FF90EF90DF90D5
S11302D0CF90BF9008958093BB0084E88093BC00C6
S11302E0ECEBF0E080818823ECF78091B900887F03
S11302F0883221F0803321F082E0089580E008956F
S113030081E0089584EC8093BC00ECEBF0E0808104
S11303108823ECF78091BB00089584E88093BC00A7
S1130320ECEBF0E080818823ECF78091BB0008952A
S11303302FEF82E597E0215080409040E1F700C024
S1130340000080ED0E942F0189E10E946B0187E08B
S11303500E946B010E94260180ED0E942F018BE612
S11303600E946B0181E00E946B010E94260180EDD6
S11303700E942F018AE10E946B0180E00E946B01C0
S11303800E94260180ED0E942F018BE10E946B01E7
S113039088E10E946B010E94260180ED0E942F01DA
S11303A088E30E946B0181E00E946B010E94260198
S11303B0089580ED0E942F018BE30E946B0181ED73
S11303C00E9400010895CF930E94D9010E948201E6
S11303D0C82F0E9482016C2F70E0762F6627682B4D
S11303E0072E000C880B990B0E9460046093640133
S11303F07093650180936601909367010E94820166
S1130400C82F0E9482016C2F70E0762F6627682B1C
S1130410072E000C880B990B0E94600460935C010A
S113042070935D0180935E0190935F010E9482014D
S1130430C82F0E9482016C2F70E0762F6627682BEC
S1130440072E000C880B990B0E94600460935001E6
S11304507093510180935201909353010E94820141
S1130460C82F0E9482016C2F70E0762F6627682BBC
S1130470072E000C880B990B0E94600460935401B2
S11304807093550180935601909357010E94820105
S1130490C82F0E9482016C2F70E0762F6627682B8C
S11304A0072E000C880B990B0E946004609368016E
S11304B07093690180936A0190936B010E94820199
S11304C0C82F0E948D016C2F70E0762F6627682B51
S11304D0072E000C880B990B0E9460046093600146
S11304E07093610180936201909363010E942601DD
S11304F0CF910895CF93DF93CDB7DEB7E2970FB6D0
S1130500F894DEBF0FBECDBF0E94FA000E9498018E
S113051060E875E280E090E00E94A8037E0125E196
S1130520E20EF11CCE0101966C010F2EF8E14F2E64
S1130530F1E05F2EF02D0F2EF8EF3F2EF02D0F2E51
S1130540F4E26F2EF1E07F2EF02D0F2EF2E38F2ECA
S1130550F1E09F2EF02D0F2EF0E4AF2EF1E0BF2E30
S1130560F02D0E94E30120E030E040E858E3609180
S11305705C0170915D0180915E0190915F010E9428
S1130580EC046F8F78A389A39AA320E030E040E8BD
S113059058E3609150017091510180915201909102
S11305A053010E94EC046BA37CA38DA39EA323E3BD
S11305B033E343E851E46091540170915501809113
S11305C05601909157010E94EC036FA378A789A765
S11305D09AA723E333E343E851E4609168017091FF
S11305E0690180916A0190916B010E94EC036BA7F1
S11305F07CA78DA79EA723E333E343E851E46091EE
S113060060017091610180916201909163010E9487
S1130610EC036FA778AB89AB9AAB20E030E040E8FD
S113062058E3609164017091650180916601909135
S113063067010E94EC04870122E043E00E942F0935
S1130640FF92EF9280E091E09F938F93DF92CF929D
S11306500E94790AC6010E94DD0322E043E06F8D07
S113066078A189A19AA10E942F09FF92EF928CE0B0
S113067091E09F938F93DF92CF920E94790AC601F3
S11306800E94DD0322E043E06BA17CA18DA19EA129
S11306900E942F09FF92EF925F924F92DF92CF92C6
S11306A00E94790AC6010E94DD0322E043E06FA1A3
S11306B078A589A59AA50E942F091F923F92FF92BF
S11306C0EF927F926F92DF92CF920E94790AC601D5
S11306D00E94DD0322E043E06BA57CA58DA59EA5C9
S11306E00E942F091F923F92FF92EF929F928F9246
S11306F0DF92CF920E94790A0FB6F894DEBF0FBE44
S1130700CDBFC6010E94DD0322E043E06FA578A9B6
S113071089A99AA90E942F091F923F92FF92EF92F2
S1130720BF92AF92DF92CF920E94790AC6010E94D3
S1130730DD039FEF23ED80E3915020408040E1F7FB
S113074000C000000FB6F894DEBF0FBECDBF09CFC6
S113075028E12093C100DC01CB01880F991FAA1F57
S1130760BB1F880F991FAA1FBB1F9C01AD01220F3D
S1130770331F441F551F220F331F441F551F60E0B2
S113078074E284EF90E00E94D6088FEF820F80938A
S1130790C400DA01C9010197A109B109892F9A2F6F
S11307A0AB2FBB278093C50008958093C600E0EC6F
S11307B0F0E0808185FFFDCF0895CF93DF93EC01B6
S11307C08881882331F021960E94D5038991811173
S11307D0FBCFDF91CF9108950E9400040C94B204E2
S11307E00E94AB0458F00E94A40440F029F45F3F37
S11307F029F00C949B0451110C94E6040C94A1046C
S11308000E94C30468F39923B1F3552391F3951B14
S1130810550BBB27AA2762177307840738F09F5F1D
S11308205F4F220F331F441FAA1FA9F335D00E2E8A
S11308303AF0E0E832D091505040E695001CCAF7F7
S11308402BD0FE2F29D0660F771F881FBB1F2617BA
S113085037074807AB07B0E809F0BB0B802DBF0191
S1130860FF2793585F4F3AF09E3F510578F00C9460
S11308709B040C94E6045F3FE4F3983ED4F386951E
S113088077956795B795F7959F5FC9F7880F911D81
S11308909695879597F90895E1E0660F771F881F6D
S11308A0BB1F621773078407BA0720F0621B730B20
S11308B0840BBA0BEE1F88F7E0950895E89409C0FD
S11308C097FB3EF490958095709561957F4F8F4F7F
S11308D09F4F9923A9F0F92F96E9BB279395F69595
S11308E0879577956795B795F111F8CFFAF4BB0F13
S11308F011F460FF1BC06F5F7F4F8F4F9F4F16C077
S1130900882311F096E911C0772321F09EE8872F00
S1130910762F05C0662371F096E8862F70E060E0BC
S11309202AF09A95660F771F881FDAF7880F969535
S1130930879597F9089597F99F6780E870E060E0DC
S113094008959FEF80EC089500240A941616170664
S113095018060906089500240A94121613061406AC
S113096005060895092E0394000C11F4882352F00F
S1130970BB0F40F4BF2B11F460FF04C06F5F7F4FC7
S11309808F4F9F4F089557FD9058440F551F59F0AE
S11309905F3F71F04795880F97FB991F61F09F3F68
S11309A079F087950895121613061406551FF2CF91
S11309B04695F1DF08C0161617061806991FF1CFE1
S11309C086957105610508940895E894BB27662708
S11309D07727CB0197F908950E94FF040C94B20481
S11309E00E94A40438F00E94AB0420F0952311F077
S11309F00C949B040C94A10411240C94E6040E940E
S1130A00C30470F3959FC1F3950F50E0551F629F87
S1130A10F001729FBB27F00DB11D639FAA27F00D53
S1130A20B11DAA1F649F6627B00DA11D661F829F7A
S1130A302227B00DA11D621F739FB00DA11D621F5F
S1130A40839FA00D611D221F749F3327A00D611D7C
S1130A50231F849F600D211D822F762F6A2F11245E
S1130A609F5750409AF0F1F088234AF0EE0FFF1F91
S1130A70BB1F661F771F881F91505040A9F79E3FE8
S1130A80510580F00C949B040C94E6045F3FE4F35E
S1130A90983ED4F3869577956795B795F795E7953E
S1130AA09F5FC1F7FE2B880F911D9695879597F947
S1130AB00895A0E1B0E0EFE5F5E00C94F8087C01BE
S1130AC01B016A01FC0117821682838181FF44C3E2
S1130AD09E012F5F3F4F3901F7019381F10193FD8F
S1130AE0859193FF81911F01882309F431C38532D5
S1130AF039F493FD859193FF81911F01853239F477
S1130B00B70190E00E943D0A56016501E5CF10E06F
S1130B10512C912CFFE1F915D8F08B3279F038F48F
S1130B20803279F08332A1F4F92DF0612EC08D3238
S1130B3061F0803369F4292D21602DC0392D326094
S1130B40932E892D8460982E2AC0E92DE86015C063
S1130B5097FC2DC020ED280F2A3088F496FE06C09D
S1130B603AE0139F200D1124122F19C08AE0589ED9
S1130B70200D1124522EE92DE0629E2E10C08E32DB
S1130B8031F496FCE5C2F92DF0649F2E08C08C3632
S1130B9021F4292D2068922E02C0883641F4F101F7
S1130BA093FD859193FF81911F018111B3CF9BEB3D
S1130BB0980F933020F4992D9061805E07C09BE9D3
S1130BC0980F933008F066C1992D9F7E96FF16E02A
S1130BD09F73992E853619F49064992E08C0863631
S1130BE021F4392F3068932E02C01111115097FE51
S1130BF007C01C3350F444244394410E27E00BC037
S1130C00183038F027E017E005C027E09CE3492EB0
S1130C1002C0212F412C560184E0A80EB11CF6011C
S1130C206081718182819381042DA3010E944F0907
S1130C306C01F981FC87F0FF02C0F3FF06C091FC50
S1130C4006C092FE06C000E205C00DE203C00BE23E
S1130C5001C000E08C858C7019F001115AC29BC24E
S1130C6097FE10C04C0CFC85F4FF04C08A818133CC
S1130C7009F44A94141474F528E0241578F588E0EE
S1130C80482E2CC096FC2AC0812F90E08C159D051F
S1130C909CF03CEFC3163FEFD30674F0892D8068B7
S1130CA0982E0AC0E2E0F0E0EC0FFD1FE10FF11D09
S1130CB08081803319F411501111F4CF97FE0EC0C6
S1130CC044244394410E812F90E0C816D9062CF495
S1130CD01C1904C04424439401C010E097FE06C0CC
S1130CE01C141D0434F4C601019605C085E090E08F
S1130CF002C081E090E001110196112331F0212F0F
S1130D0030E02F5F3F4F820F931F252D30E0821775
S1130D10930714F4581A01C0512C892D897049F491
S1130D20552039F0B70180E290E00E943D0A5A94C0
S1130D30F7CF002329F0B701802F90E00E943D0AED
S1130D4093FC09C0552039F0B70180E390E00E947C
S1130D503D0A5A94F7CF97FE4CC04601D7FE02C015
S1130D60812C912CC60188199909F301E80FF91F08
S1130D70FE87ED87960124193109388B2F87012FBF
S1130D8010E01195019511093FEF8316930629F49C
S1130D90B7018EE290E00E943D0AC814D9044CF0D9
S1130DA08F8598898815990524F4ED85FE858181C0
S1130DB001C080E3F1E08F1A91082D853E852F5FF5
S1130DC03F4F3E872D87801691062CF0B70190E0A7
S1130DD00E943D0AD9CFC814D90441F49A819633AC
S1130DE020F4953319F43C8534FF81E3B70190E096
S1130DF04EC08A81813319F09C859F7E9C87B70100
S1130E0090E00E943D0A111105C094FC18C085E6CB
S1130E1090E017C0B7018EE290E00E943D0A1E5F89
S1130E2082E001E0080FF301E80FF11D8081B701B2
S1130E3090E00E943D0A802F0113F3CFE6CF85E4B2
S1130E4090E0B7010E943D0AD7FC06C0C114D1044A
S1130E5041F4EC85E4FF05C0D194C194D1088DE23E
S1130E6001C08BE2B70190E00E943D0A80E32AE0D2
S1130E70C216D1042CF08F5FFAE0CF1AD108F7CF55
S1130E80B70190E00E943D0AB701C601C0960E94D6
S1130E903D0A54C1833631F0833779F0833509F044
S1130EA056C020C0560132E0A30EB11CF601808169
S1130EB0898301E010E0630112C05601F2E0AF0E35
S1130EC0B11CF601C080D18096FE03C0612F70E092
S1130ED002C06FEF7FEFC6010E94320A8C01F92D28
S1130EE0FF7714C0560122E0A20EB11CF601C080A7
S1130EF0D18096FE03C0612F70E002C06FEF7FEFD8
S1130F00C6010E94270A8C01F92DF0689F2EF3FD7B
S1130F101AC0852D90E008171907A8F4B70180E2DC
S1130F2090E00E943D0A5A94F4CFF60197FC859113
S1130F3097FE81916F01B70190E00E943D0A511024
S1130F405A94015011090115110579F7F7C0843637
S1130F5011F0893661F5560197FE09C024E0A20E0E
S1130F60B11CF60160817181828193810AC0F2E033
S1130F70AF0EB11CF60160817181072E000C880B45
S1130F80990BF92DFF769F2E97FF09C090958095B8
S1130F90709561957F4F8F4F9F4FF0689F2E2AE089
S1130FA030E0A3010E949B0AC82EC6183FC0092D39
S1130FB0853721F40F7E2AE030E01DC0097F8F368B
S1130FC091F018F4883559F0C3C0803719F0883788
S1130FD011F0BEC0006104FF09C0046007C094FEA4
S1130FE008C0066006C028E030E005C020E130E01B
S1130FF002C020E132E0560107FF09C084E0A80ED8
S1131000B11CF601608171818281938108C0F2E094
S1131010AF0EB11CF6016081718180E090E0A30104
S11310200E949B0AC82EC6180F77902E96FE0BC0FE
S1131030092D0E7FC11650F494FE0AC092FC08C01C
S1131040092D0E7E05C0DC2C092D03C0DC2C01C04B
S1131050D12E04FF0DC0FE01EC0DF11D8081803303
S113106011F4097E09C002FF06C0D394D39404C0CE
S1131070802F867809F0D39403FD11C000FF06C0C9
S11310801C2DD51480F4150D1D190DC0D51458F45C
S1131090B70180E290E00E943D0AD394F7CFD514C3
S11310A010F45D1801C0512C04FF10C0B70180E397
S11310B090E00E943D0A02FF17C001FD03C088E7CB
S11310C090E002C088E590E0B7010CC0802F8678DC
S11310D059F001FF02C08BE201C080E207FD8DE2FE
S11310E0B70190E00E943D0AC11638F4B70180E3CD
S11310F090E00E943D0A1150F7CFCA94F301EC0D21
S1131100F11D8081B70190E00E943D0AC110F5CF26
S113111015C0F4E0F51560F584E0581A93FE1FC07D
S1131120011127C02C8523FF2AC004EB10E0392DC0
S11311303071932EF8018491811124C0552009F453
S1131140E4CCB70180E290E00E943D0A5A94F6CFC5
S1131150F7018681978126C08FEF9FEF23C0B701E7
S113116080E290E00E943D0A5A945110F8CFD8CF03
S1131170512CB701802F90E00E943D0AD3CF08EB99
S113118010E0D5CF91108052B70190E00E943D0A43
S11311900F5F1F4FCFCF23E0251510F483E0BDCFA1
S11311A0512CC0CF6096E2E10C941409A1E21A2EEE
S11311B0AA1BBB1BFD010DC0AA1FBB1FEE1FFF1FF7
S11311C0A217B307E407F50720F0A21BB30BE40B47
S11311D0F50B661F771F881F991F1A9469F760958E
S11311E07095809590959B01AC01BD01CF01089548
S11311F02F923F924F925F926F927F928F929F9223
S1131200AF92BF92CF92DF92EF92FF920F931F9310
S1131210CF93DF93CDB7DEB7CA1BDB0B0FB6F894C1
S1131220DEBF0FBECDBF09942A88398848885F8401
S11312306E847D848C849B84AA84B984C884DF8072
S1131240EE80FD800C811B81AA81B981CE0FD11D56
S11312500FB6F894DEBF0FBECDBFED010895EF9237
S11312600F931F93CF93DF93E80147FD02C034E04F
S113127001C034E1042E000C550B57FF03C05195F7
S113128041955109E32E022F242FAE010E94F90A41
S1131290CE01DF91CF911F910F91EF9008952830E7
S11312A008F027E03327DA01990F311D87FD91609B
S11312B000966105710539F432602E5F3D9330E389
S11312C02A95E1F708959F3F30F080387105610554
S11312D009F03C5F3C5F3D93913008F08068911DBC
S11312E0DF93CF931F930F93FF92EF92192F987F61
S11312F09695E92F96959695E90FFF27EA5EFE4F9E
S113130099273327EE24FF24A701E70105900894C9
S1131310079428F4360FE71EF81E491F511D660F67
S1131320771F881F991F0694A1F70590079428F446
S1131330E70EF81E491F561FC11D770F881F991FFE
S1131340661F0694A1F70590079428F4F80E491F28
S1131350561FC71FD11D880F991F661F771F06943C
S1131360A1F70590079420F4490F561FC71FD81FF3
S1131370990F661F771F881F0694A9F7849110950B
S1131380177041F0D695C79557954795F794E7940C
S11313901A95C1F7ECEBF0E068941590159135912E
S11313A06591959105907FE27395E118F10A430BDD
S11313B0560BC90BD009C0F7E10CF11E431F561F91
S11313C0C91FD01D7EF4703311F48A95E6CFE894DA
S11313D0015030F0080F0AF40027021708F4202FF8
S11313E02395022F7A3328F079E37D932A95E9F740
S11313F010C07D932A9589F606949795679537953D
S113140017951794E118F10A430B560BC90BD00931
S113141098F023957E9173957A3308F070E37C936A
S11314202013B8F77E9170617D9330F0839571E35A
S11314307D9370E32A95E1F71124EF90FF900F91CB
S11314401F91CF91DF91992787FD90950895FC0115
S11314500590615070400110D8F7809590958E0FDB
S11314609F1F0895FC016150704001900110D8F74E
S1131470809590958E0F9F1F08950F931F93CF9380
S1131480DF93FB01238121FD03C08FEF9FEF2CC06D
S113149022FF16C0468157812481358142175307A4
S11314A044F4A081B1819D012F5F3F4F318320839C
S11314B08C93268137812F5F3F4F3783268314C057
S11314C08B01EC01FB010084F185E02D0995892B4A
S11314D0E1F6D80116968D919C911797019617966F
S11314E09C938E931697CE01DF91CF911F910F910C
S11314F00895AEE0B0E0EFE7FAE00C9406090D8938
S11315001E8986E08C831A8309838FEF9FE79E836D
S11315108D83AE01475E5F4F6F89788DCE01019652
S11315200E945905EF81F885E00FF11F10822E9675
S1131530E4E00C942209FA01AA27283051F1203161
S113154081F1E8946F936E7F6E5F7F4F8F4F9F4F53
S1131550AF4FB1E03ED0B4E03CD0670F781F891F95
S11315609A1FA11D680F791F8A1F911DA11D6A0F63
S1131570711D811D911DA11D20D009F468943F9116
S11315802AE0269F11243019305D3193DEF6CF0115
S11315900895462F4770405D4193B3E00FD0C9F7DB
S11315A0F6CF462F4F70405D4A3318F0495D31FD48
S11315B04052419302D0A9F7EACFB4E0A69597959B
S11315C0879577956795BA95C9F700976105710571
S11315D008959B01AC010A2E0694579547953795BB
S11315E02795BA95C9F7620F731F841F951FA01D15
S11315F00895A9E0B0E0EFEFFAE00C94FE086A0168
S1131600122FB02E2BE3201720F0FF24F394F00EBA
S113161002C02CE3F22E0F2D27E0AE014F5F5F4F87
S11316200E944F09BC014981842F8970813031F0B7
S1131630E1FC06C0E0FE06C090E205C09DE203C0E6
S11316409BE201C090E05E2D507143FF3CC09111BC
S113165002C083E001C084E0811718F4212F281B05
S113166001C020E051110BC0F601822F30E2882323
S113167019F031938150FBCFC20ED11C20E0992385
S113168029F0D6019C93F60131966F01C6010396A9
S1131690E2FE0AC03EE4D6013C9341E411964C9329
S11316A0119712963C9306C03EE6F601308341E65C
S11316B041833283FC01322F40E2332309F442C0D8
S11316C041933150FACF42FF44C0911102C083E0EC
S11316D001C084E0811718F4212F281B01C020E0E9
S11316E051110BC0F601822F30E2882319F0319397
S11316F08150FBCFC20ED11C20E0992329F0D601E2
S11317009C93F60131966F01C6010396E2FE0BC06D
S113171039E4D6013C933EE411963C93119736E4A8
S113172012963C9307C039E6F60130833EE63183D6
S113173036E63283FC01322F40E2332319F0419321
S11317403150FBCFFC01E20FF11D10828EEF9FEFB1
S1131750A6C021E030E0911102C020E030E016166E
S113176017061CF4FB01319602C0E1E0F0E02E0FF5
S11317703F1FBB2021F0EB2DF0E0319602C0E0E0EA
S1131780F0E02E0F3F1FE12FF0E02E173F071CF46F
S1131790121B212F01C020E08E2D887159F4F6010F
S11317A0822F30E2882319F031938150FBCFC20E8F
S11317B0D11C20E0992329F0D6019C93F60131969F
S11317C06F0151110BC0F601822F90E3882319F0A9
S11317D091938150FBCFC20ED11C20E00F2D060F38
S11317E09A81342F307144FF03C0913309F40150BE
S11317F0101624F4093018F008E001C001E0AB0130
S113180077FF02C040E050E0FB01E41BF50BA1E0D0
S1131810B0E0AC0FBD1FEA0FFB1F8EE2A82E4B01F8
S1131820801A91080B2D10E01195019511094F3F75
S1131830BFEF5B0721F4D601AC9211966D016417DA
S113184075072CF08416950614F4818101C080E399
S1131850415051093196D60111967D014017510727
S113186024F0D6018C936701E2CF6417750739F42D
S1131870963320F4953319F4311101C081E3F60154
S11318808083F701822F90E2882319F0919381508D
S1131890FBCFF701E20FF11D108280E090E0299662
S10D18A0ECE00C941A09F894FFCF51
S11318AA204178203D2025732067090020417920B2
S11318BA3D2025732067090020417A203D202573A5
S11318CA20670900204778203D20257325632F735C
S11318DA0900204779203D20257325632F730900C9
S11318EA20477A203D20257325632F730D0A0000B3
S9030000FC
