S014000041737369676E6D656E7434422E7372656381
S11300000C945A000C946C000C946C000C946C00CE
S11300100C946C000C946C000C946C000C946C00AC
S11300200C946C000C946C000C946C000C946C009C
S11300300C946C000C946C000C946C000C946C008C
S11300400C946C000C946C000C946C000C946C007C
S11300500C946C000C946C000C946C000C946C006C
S11300600C946C000C946C000C946C000C946C005C
S11300700C946C000C946C000C946C000C946C004C
S11300800C946C000C946C000C946C000C946C003C
S11300900C946C000C946C000C946C000C946C002C
S11300A00C946C000C946C000C946C000C946C001C
S11300B00C946C0011241FBECFEFD8E0DEBFCDBF7F
S11300C021E0A0E0B1E001C01D92A430B207E1F745
S11300D00E94AB000C94C5000C94000080E6809351
S11300E07C0087E880937A000895109201011092B1
S11300F0000124E0EAE7F0E0A8E7B0E08081806452
S11301008083808186FDFDCF4D915C911197809114
S1130110000190910101840F951F90930101809338
S113012000013FEF80E792E0315080409040E1F7DA
S113013000C00000215011F780910001909101014D
S113014096958795969587959695879590930101B1
S11301508093000108958FE084B915B88AE18093F3
S1130160810082E393EF90938700809386000E943E
S11301706E000E9475002FEF86E791E021508040C9
S11101809040E1F700C00000F4CFF894FFCFE8
S9030000FC
