:100000000C945A000C941D020C9477000C94770009
:100010000C9477000C9477000C9477000C94770084
:100020000C9477000C9477000C9477000C94770074
:100030000C9477000C9477000C9477000C94770064
:100040000C9477000C9477000C9477000C94770054
:100050000C9477000C9477000C9477000C94770044
:100060000C9477000C9477000C9477000C94770034
:100070000C9477000C9477000C9477000C94770024
:100080000C9477000C9477000C9477000C94770014
:100090000C9477000C9477000C9477000C94770004
:1000A0000C9477000C9477000C9477000C947700F4
:1000B0000C94770011241FBECFEFD8E0DEBFCDBF78
:1000C00012E0A0E0B1E0E0E8F2E102C005900D929C
:1000D000AC38B107D9F722E0ACE8B2E001C01D921C
:1000E000A93BB207E1F70E9493010C943E090C94DE
:1000F00000001092C50087E68093C40086E08093DC
:10010000C20088E18093C100089584E480937C005C
:1001100087E880937A000895BF92CF92DF92EF92A2
:10012000FF920F931F93CF93DF9310928C02109244
:100130008D0210928E0210928F026894BB24B2F846
:10014000CAE7D0E008E710E088818064888388816E
:1001500086FDFDCFF80160817181C0908C02D09046
:100160008D02E0908E02F0908F0280E090E00E947D
:10017000FE04A70196010E94920460938C02709382
:100180008D0280938E0290938F02FFEF20E782E032
:10019000F15020408040E1F700C00000BA94B11057
:1001A000D3CF60918C0270918D0280918E029091DC
:1001B0008F0220E030E040E85EE30E948C0560930F
:1001C0008C0270938D0280938E0290938F02DF9148
:1001D000CF911F910F91FF90EF90DF90CF90BF9044
:1001E0000895CF93DF931F92CDB7DEB78AE091E0F9
:1001F0000E94160688E391E00E94160641E050E056
:10020000BE016F5F7F4F80E00E94540289811F9280
:100210008F9384E691E09F938F930E94000641E0C4
:1002200050E0BE016F5F7F4F81E00E9454028981E0
:100230001F928F9383E791E09F938F930E94000614
:1002400041E050E0BE016F5F7F4F82E00E945402A8
:1002500089811F928F9381E891E09F938F930E94F1
:10026000000641E050E0BE016F5F7F4F84E00E94D6
:10027000540289811F928F9383E991E09F938F931A
:100280000E94000641E050E0BE016F5F7F4F85E0B5
:100290000E94540289811F928F9386EA91E09F9376
:1002A0008F930E94000641E050E0BE016F5F7F4FD8
:1002B00086E00E94540289811F928F9384EB91E023
:1002C0009F938F930E94000641E050E0BE016F5F54
:1002D0007F4F87E00E94540289811F928F9385ECA3
:1002E00091E09F938F930E94000641E050E0BE0191
:1002F0006F5F7F4F8DE10E94540289811F928F931F
:1003000084ED91E09F938F930E9400060FB6F894BE
:10031000DEBF0FBECDBF84EE91E00E9416060F90A7
:10032000DF91CF910895CF93DF93CDB7DEB7A0973C
:100330000FB6F894DEBF0FBECDBF0E9479000E94B9
:1003400057020E94F1000E94850081E192E00E9424
:1003500016060E947C0381E292E00E94160600E3EA
:1003600012E06894992495F89E012F5F3F4F790120
:100370000F2EF9E4CF2EF2E0DF2EF02DA22EBF2CAF
:10038000882483940E948C0080918C0290918D022D
:10039000A0918E02B0918F02BF93AF939F938F93E2
:1003A0001F930F931F929F92FF92EF920E94460617
:1003B0008A2D9B2D0E9487033FEF81EE94E0315000
:1003C00080409040E1F700C00000809191020FB69C
:1003D000F894DEBF0FBECDBF8823A1F285E392E083
:1003E0000E941606109291020E9444049F938F93DC
:1003F000DF92CF920E9400063FEF89E698E13150EC
:1004000080409040E1F700C000008A2D9B2D0E94A3
:100410008703982D0F900F900F900F90811101C0BE
:1004200090E09093900280919002882309F4AACFE3
:100430008FE592E00E941606A5CF1F920F920FB68D
:100440000F9211248F9381E0809391028F910F90EE
:100450000FBE0F901F901895DF92EF92FF920F93AF
:100460001F93CF93DF937B018A012A980E948B040C
:10047000D82E0115110551F0E7010E0D1F1D8881C1
:100480000E948B048993C017D107C9F72A9A8D2D32
:10049000DF91CF911F910F91FF90EF90DF90089522
:1004A00080620E942C0208950E942C0208950F93EE
:1004B0001F93CF93DF931F92CDB7DEB7F894E9E691
:1004C000F0E0808182608083E89A7894219A229A71
:1004D0002A9A29980E947C042FEF81EE94E0215003
:1004E00080409040E1F700C000000FE30093B202AB
:1004F00041E050E062EB72E080E00E945002109216
:10050000B20241E050E062EB72E081E00E945002F2
:1005100080EF8093B20241E050E062EB72E084E051
:100520000E9450021092B20241E050E062EB72E091
:1005300082E00E94500284E78093B20241E050E0E2
:1005400062EB72E085E00E9450028EE08093B2027E
:1005500041E050E062EB72E086E00E94500210E75A
:100560001093B20241E050E062EB72E087E00E943B
:1005700050020093B20241E050E062EB72E08CE185
:100580000E94500284E08093B20241E050E062EBAE
:1005900072E08DE10E945002198340E050E060E07B
:1005A00070E082EE0E94500240E050E060E070E0B7
:1005B00081EE0E94500245E050E065E071E08AE083
:1005C0000E94500245E050E060E071E080E10E944E
:1005D000500241E050E0BE016F5F7F4F82E00E9419
:1005E000500289818160898341E050E0BE016F5FE4
:1005F0007F4F82E00E9450020F90DF91CF911F91B8
:100600000F9108951F93CF93DF931F92CDB7DEB75D
:10061000182F41E050E0BE016F5F7F4F80E00E94E5
:100620005402133071F128F4113059F01230E9F00E
:100630005EC0153009F447C0D0F1163009F445C04A
:1006400056C0898181FD53C082608093B20241E02F
:1006500050E062EB72E080E00E9450028FE39FE185
:100660000197F1F700C0000042C089818D7F80931F
:10067000B20241E050E062EB72E080E00E94500282
:1006800036C0898181608093B20241E050E062EB24
:1006900072E080E00E94500280E78093B20241E065
:1006A00050E062EB72E087E00E94500220C0898136
:1006B0008E7F8093B20241E050E062EB72E080E016
:1006C0000E94500214C0299812C089818E7F8093A5
:1006D000B20241E050E062EB72E080E00E94500222
:1006E000299A87E592E00197F1F700C000000F908A
:1006F000DF91CF911F91089583E00E940203299A10
:1007000087E592E00197F1F700C000000895CF92CD
:10071000DF92EF92FF920F931F93CF93DF93CDB7AA
:10072000DEB7A0970FB6F894DEBF0FBECDBF6C0149
:100730006894FF24F5F8CE010196FC012F2D11924B
:100740002A95E9F7B6010E94F905F601019000200B
:10075000E9F731978F010C191D0984E00E9402030B
:1007600040E050E060E070E082EE0E94500240E025
:1007700050E060E070E081EE0E945002F092B20220
:1007800041E050E062EB72E087E00E94500241E0FD
:1007900050E062EB72E080E00E9454028091B2026D
:1007A00080648093B20241E050E062EB72E080E04E
:1007B0000E9450022A9880EB0E948604EFEFE00F1F
:1007C000002381F08601EE2EF12CF701319676019F
:1007D000EE0EFF1EF80181918F010E9486040E1516
:1007E0001F05C1F780E00E9486042A9A299AF0E545
:1007F000FA95F1F7299841E050E062EB72E087E06A
:100800000E9454028091B20285FD0BC041E050E08D
:1008100062EB72E087E00E9454028091B20285FF91
:10082000F5CFCE0101969F938F9383E792E09F933C
:100830008F930E94000641E050E062EB72E080E09E
:100840000E9454028091B2028F7B8093B20241E0F9
:1008500050E062EB72E080E00E9450020E947C0354
:100860000F900F900F900F9081E0A0960FB6F89424
:10087000DEBF0FBECDBFDF91CF911F910F91FF90D3
:10088000EF90DF90CF90089580E2E2E9F2E0DF019F
:100890001D928A95E9F741E050E062EB72E080E654
:1008A0000E9454024091B202442341F050E04F5F55
:1008B0005F4F62E972E081E60E942C028091920211
:1008C000882369F080E48093B20241E050E062EB5B
:1008D00072E087E00E94500282E992E0089580E48D
:1008E0008093B20241E050E062EB72E087E00E9448
:1008F000500285E892E00895249884B1886284B912
:1009000080E58CBD8DB581608DBD08958EBD0DB423
:1009100007FEFDCF08958EBD0DB407FEFDCF8EB549
:1009200008955058BB27AA270E94A9040C94520589
:100930000E94440538F00E944B0520F039F49F3F97
:1009400019F426F40C9441050EF4E095E7FB0C94A1
:100950003B05E92F0E94630558F3BA176207730736
:100960008407950720F079F4A6F50C9485050EF41C
:10097000E0950B2EBA2FA02D0B01B90190010C01AF
:10098000CA01A0011124FF27591B99F0593F50F4C7
:10099000503E68F11A16F040A22F232F342F44271F
:1009A000585FF3CF469537952795A795F040539517
:1009B000C9F77EF41F16BA0B620B730B840BBAF0E7
:1009C0009150A1F0FF0FBB1F661F771F881FC2F752
:1009D0000EC0BA0F621F731F841F48F48795779566
:1009E0006795B795F7959E3F08F0B0CF9395880F20
:1009F00008F09927EE0F979587950895E89409C018
:100A000097FB3EF490958095709561957F4F8F4F41
:100A10009F4F9923A9F0F92F96E9BB279395F69557
:100A2000879577956795B795F111F8CFFAF4BB0FD5
:100A300011F460FF1BC06F5F7F4F8F4F9F4F16C039
:100A4000882311F096E911C0772321F09EE8872FC3
:100A5000762F05C0662371F096E8862F70E060E07F
:100A60002AF09A95660F771F881FDAF7880F9695F8
:100A7000879597F9089597F99F6780E870E060E09F
:100A800008959FEF80EC089500240A941616170627
:100A900018060906089500240A941216130614066F
:100AA00005060895092E0394000C11F4882352F0D2
:100AB000BB0F40F4BF2B11F460FF04C06F5F7F4F8A
:100AC0008F4F9F4F089557FD9058440F551F59F071
:100AD0005F3F71F04795880F97FB991F61F09F3F2B
:100AE00079F087950895121613061406551FF2CF54
:100AF0004695F1DF08C0161617061806991FF1CFA4
:100B000086957105610508940895E894BB276627CA
:100B10007727CB0197F908950E949F050C94520501
:100B20000E94440538F00E944B0520F0952311F0F7
:100B30000C943B050C94410511240C9486050E94ED
:100B4000630570F3959FC1F3950F50E0551F629FA9
:100B5000F001729FBB27F00DB11D639FAA27F00D16
:100B6000B11DAA1F649F6627B00DA11D661F829F3D
:100B70002227B00DA11D621F739FB00DA11D621F22
:100B8000839FA00D611D221F749F3327A00D611D3F
:100B9000231F849F600D211D822F762F6A2F112421
:100BA0009F5750409AF0F1F088234AF0EE0FFF1F54
:100BB000BB1F661F771F881F91505040A9F79E3FAB
:100BC000510580F00C943B050C9486055F3FE4F3DF
:100BD000983ED4F3869577956795B795F795E79501
:100BE0009F5FC1F7FE2B880F911D9695879597F90A
:100BF0000895FB01DC0101900D920020E1F70895BA
:100C0000A0E0B0E0E6E0F6E00C941709AE014B5F1F
:100C10005F4FFA0161917191AF018091B50290919E
:100C2000B6020E947606E2E00C9433090F931F93FC
:100C3000CF93DF93E091B502F091B602238121FFBB
:100C40001BC08C01D0E0C0E0F80181918F01609160
:100C5000B5027091B602DB011896ED91FC911997DF
:100C6000882331F00995892B79F3DFEFCFEFECCFB3
:100C70008AE00995892B19F08FEF9FEF02C08D2F25
:100C80009C2FDF91CF911F910F910895AEE0B0E0BE
:100C9000ECE4F6E00C9415090D891E898F89988D76
:100CA00026E02C831A83098397FF02C080E090E836
:100CB00001979E838D83AE01455E5F4F698D7A8D6E
:100CC000CE0101960E9476064D815E8157FD0AC0D5
:100CD0002F813885421753070CF49A01F801E20F6F
:100CE000F31F10822E96E4E00C943109ABE0B0E0E3
:100CF000ECE7F6E00C9407096C017B018A01FC012A
:100D000017821682838181FFCCC1CE0101963C01FE
:100D1000F6019381F70193FD859193FF81917F0106
:100D2000882309F4BAC1853239F493FD859193FF84
:100D300081917F01853229F4B60190E00E946D080F
:100D4000E7CF912C212C312CFFE1F315D8F08B3219
:100D500079F038F4803279F08332A1F4232D2061C8
:100D60001DC08D3261F0803369F4232D216016C0DF
:100D7000832D8260382EE32DE4603E2E2AC0F32DB1
:100D8000F8601DC037FC2DC020ED280F2A3040F040
:100D90008E32B9F436FC81C1232D2064322E19C065
:100DA00036FE06C08AE0989E200D1124922E11C0B6
:100DB000EAE02E9E200D1124222EF32DF0623F2E0C
:100DC00008C08C3621F4832D8068382E02C0883606
:100DD00041F4F70193FD859193FF81917F0181118A
:100DE000B3CF982F9F7D9554933028F40C5F1F4FFD
:100DF0009FE399830DC0833631F0833771F08335DB
:100E000009F059C021C0F801808189830E5F1F4F0E
:100E100088248394912C530113C02801F2E04F0ED3
:100E2000511CF801A080B18036FE03C0692D70E02E
:100E300002C06FEF7FEFC5010E9462084C01820182
:100E4000F32DFF773F2E16C0280122E0420E511CE1
:100E5000F801A080B18036FE03C0692D70E002C0A9
:100E60006FEF7FEFC5010E9457084C01F32DF0682A
:100E70003F2E820133FC1BC0822D90E0881699061C
:100E8000B0F4B60180E290E00E946D082A94F4CF9D
:100E9000F50137FC859137FE81915F01B60190E045
:100EA0000E946D0821102A9421E0821A9108811471
:100EB000910471F7E8C0843611F0893641F5F801E4
:100EC00037FE07C060817181828193810C5F1F4F63
:100ED00008C060817181072E000C880B990B0E5F92
:100EE0001F4FF32DFF763F2E97FF09C090958095F9
:100EF000709561957F4F8F4F9F4FF0683F2E2AE08E
:100F000030E0A3010E94A908882E861845C08537C5
:100F100031F4232D2F7EB22E2AE030E025C0932D10
:100F2000997FB92E8F36C1F018F4883579F0B5C0A5
:100F3000803719F0883721F0B0C0E92FE061BE2E6C
:100F4000B4FE0DC0FB2DF460BF2E09C034FE0AC0F4
:100F5000292F2660B22E06C028E030E005C020E12F
:100F600030E002C020E132E0F801B7FE07C0608146
:100F70007181828193810C5F1F4F06C060817181F6
:100F800080E090E00E5F1F4FA3010E94A908882E09
:100F90008618FB2DFF773F2E36FE0DC0232D2E7FAA
:100FA000A22E891458F434FE0BC032FC09C0832DE4
:100FB0008E7EA82E05C0B82CA32C03C0B82C01C06F
:100FC000B92CA4FE0FC0FE01E80DF11D8081803315
:100FD00021F49A2D997EA92E09C0A2FE06C0B394D1
:100FE000B39404C08A2D867809F0B394A3FC11C091
:100FF000A0FE06C0B21488F4280C922C9B180EC0D8
:10100000B21460F4B60180E290E00E946D08B394DF
:10101000F7CFB21418F42B1802C0982C212CA4FE80
:1010200010C0B60180E390E00E946D08A2FE17C0D8
:10103000A1FC03C088E790E002C088E590E0B6011B
:101040000CC08A2D867859F0A1FE02C08BE201C047
:1010500080E2A7FC8DE2B60190E00E946D08891441
:1010600038F4B60180E390E00E946D089A94F7CFBF
:101070008A94F301E80DF11D8081B60190E00E9491
:101080006D088110F5CF222009F442CEB60180E22E
:1010900090E00E946D082A94F6CFF6018681978130
:1010A00002C08FEF9FEF2B96E2E10C942309FC0125
:1010B0000590615070400110D8F7809590958E0F83
:1010C0009F1F0895FC016150704001900110D8F7F6
:1010D000809590958E0F9F1F08950F931F93CF9328
:1010E000DF93FB01238121FD03C08FEF9FEF2CC015
:1010F00022FF16C04681578124813581421753074C
:1011000044F4A081B1819D012F5F3F4F3183208343
:101110008C93268137812F5F3F4F3783268314C0FE
:101120008B01EC01FB010084F185E02D0995892BF1
:10113000E1F6D80116968D919C9117970196179616
:101140009C938E931697CE01DF91CF911F910F91B3
:101150000895FA01AA27283051F1203181F1E8944D
:101160006F936E7F6E5F7F4F8F4F9F4FAF4FB1E09A
:101170003ED0B4E03CD0670F781F891F9A1FA11D95
:10118000680F791F8A1F911DA11D6A0F711D811D96
:10119000911DA11D20D009F468943F912AE0269F5B
:1011A00011243019305D3193DEF6CF010895462FBA
:1011B0004770405D4193B3E00FD0C9F7F6CF462F9B
:1011C0004F70405D4A3318F0495D31FD4052419304
:1011D00002D0A9F7EACFB4E0A695979587957795C1
:1011E0006795BA95C9F700976105710508959B0148
:1011F000AC010A2E06945795479537952795BA95D1
:10120000C9F7620F731F841F951FA01D08952F92A9
:101210003F924F925F926F927F928F929F92AF9286
:10122000BF92CF92DF92EF92FF920F931F93CF93D3
:10123000DF93CDB7DEB7CA1BDB0B0FB6F894DEBF6A
:101240000FBECDBF09942A88398848885F846E8490
:101250007D848C849B84AA84B984C884DF80EE80DA
:10126000FD800C811B81AA81B981CE0FD11D0FB6E3
:10127000F894DEBF0FBECDBFED010895F894FFCF07
:10128000E7E7E7E7E7F7F7F7F7F753746172747585
:1012900070207375636365737366756C0A0A206EDC
:1012A000524632344C30312B20636F6E666967755D
:1012B0007265642061733A002D2D2D2D2D2D2D2D5D
:1012C0002D2D2D2D2D2D2D2D2D2D2D2D2D2D2D2D4E
:1012D0002D2D2D2D2D2D2D2D2D2D2D2D2D2D2D2D3E
:1012E0002D2D2D00434F4E46494720307825303272
:1012F000580A00454E5F4141203078253032580A67
:1013000000454E5F525841444452203078253032D7
:10131000580A0053455455505F5245545220307876
:10132000253032580A0052465F4348203078253035
:1013300032580A0052465F534554555020307825A4
:101340003032580A005354415455532030782530D8
:1013500032580A00464541545552452030782530D0
:1013600032580A002D2D2D2D2D2D2D2D2D2D2D2DCD
:101370002D2D2D2D2D2D2D2D2D2D2D2D2D2D2D2D9D
:101380002D2D2D2D2D2D2D2D2D2D2D2D2D2D2D0AB0
:10139000007374617274206C697374656E696E6732
:1013A00000446F6E65206C697374656E696E6700CA
:1013B00025660D0A00696E7369646520696620639D
:1013C0006F6E646974696F6E004D657373616765F4
:1013D0002052656365697665643A2025730A004D7D
:1013E000657373616765205472616E736D6974749F
:1013F0006564004D6573736167652073656E743A4B
:0C1400002025730A006661696C656400B9
:00000001FF
