:100000000C945A000C946C000C946C000C946C00D2
:100010000C946C000C946C000C946C000C946C00B0
:100020000C946C000C946C000C946C000C946C00A0
:100030000C946C000C946C000C946C000C946C0090
:100040000C946C000C946C000C946C000C946C0080
:100050000C946C000C946C000C946C000C946C0070
:100060000C946C000C946C000C946C000C946C0060
:100070000C946C000C946C000C946C000C946C0050
:100080000C946C000C946C000C946C000C946C0040
:100090000C946C000C946C000C946C000C946C0030
:1000A0000C946C000C946C000C946C000C946C0020
:1000B0000C946C0011241FBECFEFD8E0DEBFCDBF83
:1000C00021E0A0E0B1E001C01D92A630B207E1F747
:1000D0000E94D0000C948F020C94000080E6809364
:1000E0007C0086EA80937A000895CF92DF92EF92A7
:1000F000FF92CF931092020110920301109204011B
:1001000010920501C5E0C15079F180917A008064B8
:1001100080937A0080917A0086FDFCCF6091780010
:1001200070917900C0900201D0900301E090040129
:10013000F090050180E090E00E949401A7019601F3
:100140000E942801609302017093030180930401CF
:10015000909305012FEF80E792E02150804090407E
:10016000E1F700C00000CFCF609102017091030160
:10017000809104019091050120E030E040E05EE3D1
:100180000E94220260930201709303018093040194
:1001900090930501CF91FF90EF90DF90CF9008955D
:1001A0000E946E00409A8FEF8AB984B980918000D6
:1001B000826A80938000809181008B6180938100AE
:1001C00082E393EF90938700809386000E947500EE
:1001D0002FEF40E782E0215040408040E1F700C02F
:1001E000000024EF31E080917A00806480937A00EF
:1001F00080917A0084FFFCCF8091790090E0909309
:10020000010180930001892B69F4109289001092FA
:1002100088009FEF43EC89E0915040408040E1F737
:1002200000C0000080910001909101018F3F910575
:10023000D1F630938900209388009FEF43EC89E04A
:10024000915040408040E1F700C00000CCCF5058B2
:10025000BB27AA270E943F010C94E8010E94DA0103
:1002600038F00E94E10120F039F49F3F19F426F4A0
:100270000C94D7010EF4E095E7FB0C94D101E92F23
:100280000E94F90158F3BA176207730784079507AC
:1002900020F079F4A6F50C941B020EF4E0950B2ED9
:1002A000BA2FA02D0B01B90190010C01CA01A001C8
:1002B0001124FF27591B99F0593F50F4503E68F123
:1002C0001A16F040A22F232F342F4427585FF3CF64
:1002D000469537952795A795F0405395C9F77EF435
:1002E0001F16BA0B620B730B840BBAF09150A1F07E
:1002F000FF0FBB1F661F771F881FC2F70EC0BA0F04
:10030000621F731F841F48F4879577956795B7958B
:10031000F7959E3F08F0B0CF9395880F08F0992786
:10032000EE0F979587950895E89409C097FB3EF4E2
:1003300090958095709561957F4F8F4F9F4F992332
:10034000A9F0F92F96E9BB279395F69587957795B0
:100350006795B795F111F8CFFAF4BB0F11F460FF70
:100360001BC06F5F7F4F8F4F9F4F16C0882311F0C8
:1003700096E911C0772321F09EE8872F762F05C0DC
:10038000662371F096E8862F70E060E02AF09A9577
:10039000660F771F881FDAF7880F9695879597F96C
:1003A000089597F99F6780E870E060E008959FEFF7
:1003B00080EC089500240A941616170618060906FC
:1003C000089500240A9412161306140605060895CB
:1003D000092E0394000C11F4882352F0BB0F40F453
:1003E000BF2B11F460FF04C06F5F7F4F8F4F9F4F93
:1003F000089557FD9058440F551F59F05F3F71F015
:100400004795880F97FB991F61F09F3F79F087957B
:100410000895121613061406551FF2CF4695F1DF04
:1004200008C0161617061806991FF1CF8695710594
:10043000610508940895E894BB2766277727CB01C8
:1004400097F908950E9435020C94E8010E94DA01A0
:1004500038F00E94E10120F0952311F00C94D101B5
:100460000C94D70111240C941C020E94F90170F322
:10047000959FC1F3950F50E0551F629FF001729F49
:10048000BB27F00DB11D639FAA27F00DB11DAA1F58
:10049000649F6627B00DA11D661F829F2227B00DA5
:1004A000A11D621F739FB00DA11D621F839FA00D30
:1004B000611D221F749F3327A00D611D231F849F80
:1004C000600D211D822F762F6A2F11249F575040D7
:1004D0009AF0F1F088234AF0EE0FFF1FBB1F661F52
:1004E000771F881F91505040A9F79E3F510580F01B
:1004F0000C94D1010C941C025F3FE4F3983ED4F3BA
:10050000869577956795B795F795E7959F5FC1F7BE
:10051000FE2B880F911D9695879597F90895F8946D
:02052000FFCF0B
:00000001FF
