S014000041737369676E6D656E7434412E7372656382
S11300000C945A000C946C000C946C000C946C00CE
S11300100C94D0000C946C000C946C000C946C0048
S11300200C946C000C946C000C946C000C946C009C
S11300300C946C000C946C000C946C000C946C008C
S11300400C946C000C946C000C946C000C946C007C
S11300500C946C000C946C000C946C000C946C006C
S11300600C946C000C946C000C946C000C946C005C
S11300700C946C000C946C000C946C000C946C004C
S11300800C946C000C946C000C946C000C946C003C
S11300900C946C000C946C000C946C000C946C002C
S11300A00C946C000C946C000C946C000C946C001C
S11300B00C946C0011241FBECFEFD8E0DEBFCDBF7F
S11300C021E0A0E0B1E001C01D92A430B207E1F745
S11300D00E94E2000C94E2020C94000080E68093FB
S11300E07C0087E880937A000895CF92DF92EF92A4
S11300F0FF92CF931092000110920101109202011D
S113010010920301C5E0C15079F180917A008064B6
S113011080937A0080917A0086FDFCCF609178000C
S113012070917900C0900001D0900101E09002012B
S1130130F090030180E090E00E94BE01A7019601C7
S11301400E944D01609300017093010180930201AC
S1130150909303012FEF80E792E02150804090407C
S1130160E1F700C00000CFCF609100017091010160
S1130170809102019091030120E030E040E05EE3D1
S11301800E94750260930001709301018093020143
S113019090930301CF91FF90EF90DF90CF9008955B
S11301A01F920F920FB60F9211248F939F9397B1C2
S11301B081E0892787B99F918F910F900FBE0F908F
S11301C01F9018950E946E0087B187B9439A409A90
S11301D0219A82E08093680088E080936C00789490
S11301E08FEF9FEF9093870080938600809180002B
S11301F0806A809380008091800082608093800078
S11302008091810088618093810080918100816068
S1130210809381000E9475002FEF80E792E02150C7
S113022080409040E1F700C00000609100017091AF
S11302300101809102019091030120E03DE143E737
S113024057E40E94700287FD20C060910001709104
S11302500101809102019091030120E030EB4FE70E
S113026057E40E94B90187FF10C08DE193EF90938A
S11302708900809388002FEF80E792E0215080402E
S11302809040E1F700C0000004C010928900109271
S1130290880080E090E008955058BB27AA270E9468
S11302A064010C9436020E94280238F00E942F0246
S11302B020F039F49F3F19F426F40C9425020EF42F
S11302C0E095E7FB0C941F02E92F0E94470258F3C4
S11302D0BA17620773078407950720F079F4A6F527
S11302E00C9469020EF4E0950B2EBA2FA02D0B018D
S11302F0B90190010C01CA01A0011124FF27591B67
S113030099F0593F50F4503E68F11A16F040A22F6C
S1130310232F342F4427585FF3CF469537952795DD
S1130320A795F0405395C9F77EF41F16BA0B620BDC
S1130330730B840BBAF09150A1F0FF0FBB1F661F23
S1130340771F881FC2F70EC0BA0F621F731F841F66
S113035048F4879577956795B795F7959E3F08F08C
S1130360B0CF9395880F08F09927EE0F979587954E
S113037008950E94FB0108F481E00895E89409C0FF
S113038097FB3EF490958095709561957F4F8F4FC4
S11303909F4F9923A9F0F92F96E9BB279395F695DA
S11303A0879577956795B795F111F8CFFAF4BB0F58
S11303B011F460FF1BC06F5F7F4F8F4F9F4F16C0BC
S11303C0882311F096E911C0772321F09EE8872F46
S11303D0762F05C0662371F096E8862F70E060E002
S11303E02AF09A95660F771F881FDAF7880F96957B
S11303F0879597F90895990F0008550FAA0BE0E81F
S1130400FEEF16161706E807F907C0F012161306D2
S1130410E407F50798F0621B730B840B950B39F412
S11304200A2661F0232B242B252B21F408950A2678
S113043009F4A140A6958FEF811D811D089597F9B8
S11304409F6780E870E060E008959FEF80EC089576
S113045000240A941616170618060906089500249F
S11304600A9412161306140605060895092E039419
S1130470000C11F4882352F0BB0F40F4BF2B11F48D
S113048060FF04C06F5F7F4F8F4F9F4F089557FDEC
S11304909058440F551F59F05F3F71F04795880FEE
S11304A097FB991F61F09F3F79F087950895121685
S11304B013061406551FF2CF4695F1DF08C0161631
S11304C017061806991FF1CF8695710561050894E2
S11304D00895E894BB2766277727CB0197F90895F9
S11304E00E94FB0108F48FEF08950E9488020C9487
S11304F036020E94280238F00E942F0220F0952331
S113050011F00C941F020C94250211240C946A021D
S11305100E94470270F3959FC1F3950F50E0551F59
S1130520629FF001729FBB27F00DB11D639FAA2744
S1130530F00DB11DAA1F649F6627B00DA11D661F93
S1130540829F2227B00DA11D621F739FB00DA11DB4
S1130550621F839FA00D611D221F749F3327A00D6E
S1130560611D231F849F600D211D822F762F6A2F0A
S113057011249F5750409AF0F1F088234AF0EE0F6F
S1130580FF1FBB1F661F771F881F91505040A9F79C
S11305909E3F510580F00C941F020C946A025F3F49
S11305A0E4F3983ED4F3869577956795B795F795D8
S11305B0E7959F5FC1F7FE2B880F911D9695879550
S10B05C097F90895F894FFCFA8
S9030000FC
